{
  "abi": [
    {
      "inputs": [],
      "stateMutability": "nonpayable",
      "type": "constructor"
    },
    {
      "anonymous": false,
      "inputs": [
        {
          "indexed": false,
          "internalType": "address",
          "name": "bidder",
          "type": "address"
        },
        {
          "indexed": false,
          "internalType": "uint8",
          "name": "presentbet",
          "type": "uint8"
        },
        {
          "indexed": false,
          "internalType": "uint8",
          "name": "finl",
          "type": "uint8"
        }
      ],
      "name": "gameresult",
      "type": "event"
    },
    {
      "anonymous": false,
      "inputs": [
        {
          "indexed": false,
          "internalType": "address",
          "name": "bidder",
          "type": "address"
        },
        {
          "indexed": false,
          "internalType": "uint8",
          "name": "presentbet",
          "type": "uint8"
        }
      ],
      "name": "newbetisset",
      "type": "event"
    },
    {
      "stateMutability": "payable",
      "type": "fallback"
    },
    {
      "inputs": [],
      "name": "getNewbet",
      "outputs": [
        {
          "internalType": "uint8",
          "name": "",
          "type": "uint8"
        }
      ],
      "stateMutability": "nonpayable",
      "type": "function"
    },
    {
      "inputs": [],
      "name": "isbetset",
      "outputs": [
        {
          "internalType": "bool",
          "name": "",
          "type": "bool"
        }
      ],
      "stateMutability": "view",
      "type": "function"
    },
    {
      "inputs": [],
      "name": "roll",
      "outputs": [
        {
          "internalType": "address",
          "name": "",
          "type": "address"
        },
        {
          "internalType": "uint8",
          "name": "",
          "type": "uint8"
        },
        {
          "internalType": "uint8",
          "name": "",
          "type": "uint8"
        }
      ],
      "stateMutability": "nonpayable",
      "type": "function"
    },
    {
      "stateMutability": "payable",
      "type": "receive"
    }
  ],
  "bytecode": "608060405234801561001057600080fd5b506001805460ff1916600a1790556104f58061002d6000396000f3fe6080604052600436106100385760003560e01c80630441212014610041578063cd5e3c5d1461006c578063e9b903f4146100905761003f565b3661003f57005b005b34801561004d57600080fd5b506100566100b2565b604051610063919061041c565b60405180910390f35b34801561007857600080fd5b506100816100cd565b604051610063939291906103f8565b34801561009c57600080fd5b506100a5610297565b6040516100639190610427565b33600090815260208190526040902054610100900460ff1690565b336000908152602081905260408120548190819060ff6101009091041615156001146100f857600080fd5b610100610391565b336000908152602081905260408120805462ff000019166201000060ff9485168102919091179182905560018054919092048416939192916101449185911661044d565b82546101009290920a60ff818102199093169183160217909155336000908152602081905260409020805461ff001981169182905582166201000090910490911614159050610218576040513390600090655af3107a40009082818181858883f193505050501580156101bb573d6000803e3d6000fd5b5033600081815260208190526040908190205490517f3d5111bc39d83142c48bb36d748bd189343787af8ee3e85d6ac090245fac1fd29261020b92909160ff8083169262010000900416906103f8565b60405180910390a1610270565b33600081815260208190526040908190205490517f3d5111bc39d83142c48bb36d748bd189343787af8ee3e85d6ac090245fac1fd29261026792909160ff8083169262010000900416906103f8565b60405180910390a15b50503360008181526020819052604090205490915060ff8082169162010000900416909192565b33600090815260208190526040812054610100900460ff16156102b957600080fd5b336000908152602081905260409020805461ff0019166101001790556102dd610391565b336000908152602081905260408120805460ff191660ff938416179081905560018054918416939092916103139185911661044d565b82546101009290920a60ff81810219909316918316021790915533600081815260208190526040908190205490517fecaea69e9326ebe5aa0b5282a1d0f49d704b5f0e79524d948a3540f071c45c3894506103729391909116906103dc565b60405180910390a1503360009081526020819052604090205460ff1690565b600080426103a0600143610472565b6103aa9190610435565b600154904091506103be9060ff1682610435565b90506103cb600582610489565b6103d690600161044d565b91505090565b6001600160a01b0392909216825260ff16602082015260400190565b6001600160a01b0393909316835260ff918216602084015216604082015260600190565b901515815260200190565b60ff91909116815260200190565b60008219821115610448576104486104a9565b500190565b600060ff821660ff84168060ff0382111561046a5761046a6104a9565b019392505050565b600082821015610484576104846104a9565b500390565b6000826104a457634e487b7160e01b81526012600452602481fd5b500690565b634e487b7160e01b600052601160045260246000fdfea26469706673582212204003a294fe29c7c83724633709e444c9361ed0696d3df0bb0420284c4d827b9264736f6c63430008000033",
  "bytecodeSha1": "df292220e2f6f63b7cd2498d7d06a5a7b79389b0",
  "compiler": {
    "evm_version": "istanbul",
    "optimizer": {
      "enabled": true,
      "runs": 200
    },
    "version": "0.8.0+commit.c7dfd78e"
  },
  "contractName": "Dicegame",
  "language": "Solidity",
  "natspec": {
    "kind": "dev",
    "methods": {},
    "version": 1
  },
  "opcodes": "PUSH1 0x80 PUSH1 0x40 MSTORE PUSH1 0x4 CALLDATASIZE LT PUSH2 0x38 JUMPI PUSH1 0x0 CALLDATALOAD PUSH1 0xE0 SHR DUP1 PUSH4 0x4412120 EQ PUSH2 0x41 JUMPI DUP1 PUSH4 0xCD5E3C5D EQ PUSH2 0x6C JUMPI DUP1 PUSH4 0xE9B903F4 EQ PUSH2 0x90 JUMPI PUSH2 0x3F JUMP JUMPDEST CALLDATASIZE PUSH2 0x3F JUMPI STOP JUMPDEST STOP JUMPDEST CALLVALUE DUP1 ISZERO PUSH2 0x4D JUMPI PUSH1 0x0 DUP1 REVERT JUMPDEST POP PUSH2 0x56 PUSH2 0xB2 JUMP JUMPDEST PUSH1 0x40 MLOAD PUSH2 0x63 SWAP2 SWAP1 PUSH2 0x41C JUMP JUMPDEST PUSH1 0x40 MLOAD DUP1 SWAP2 SUB SWAP1 RETURN JUMPDEST CALLVALUE DUP1 ISZERO PUSH2 0x78 JUMPI PUSH1 0x0 DUP1 REVERT JUMPDEST POP PUSH2 0x81 PUSH2 0xCD JUMP JUMPDEST PUSH1 0x40 MLOAD PUSH2 0x63 SWAP4 SWAP3 SWAP2 SWAP1 PUSH2 0x3F8 JUMP JUMPDEST CALLVALUE DUP1 ISZERO PUSH2 0x9C JUMPI PUSH1 0x0 DUP1 REVERT JUMPDEST POP PUSH2 0xA5 PUSH2 0x297 JUMP JUMPDEST PUSH1 0x40 MLOAD PUSH2 0x63 SWAP2 SWAP1 PUSH2 0x427 JUMP JUMPDEST CALLER PUSH1 0x0 SWAP1 DUP2 MSTORE PUSH1 0x20 DUP2 SWAP1 MSTORE PUSH1 0x40 SWAP1 KECCAK256 SLOAD PUSH2 0x100 SWAP1 DIV PUSH1 0xFF AND SWAP1 JUMP JUMPDEST CALLER PUSH1 0x0 SWAP1 DUP2 MSTORE PUSH1 0x20 DUP2 SWAP1 MSTORE PUSH1 0x40 DUP2 KECCAK256 SLOAD DUP2 SWAP1 DUP2 SWAP1 PUSH1 0xFF PUSH2 0x100 SWAP1 SWAP2 DIV AND ISZERO ISZERO PUSH1 0x1 EQ PUSH2 0xF8 JUMPI PUSH1 0x0 DUP1 REVERT JUMPDEST PUSH2 0x100 PUSH2 0x391 JUMP JUMPDEST CALLER PUSH1 0x0 SWAP1 DUP2 MSTORE PUSH1 0x20 DUP2 SWAP1 MSTORE PUSH1 0x40 DUP2 KECCAK256 DUP1 SLOAD PUSH3 0xFF0000 NOT AND PUSH3 0x10000 PUSH1 0xFF SWAP5 DUP6 AND DUP2 MUL SWAP2 SWAP1 SWAP2 OR SWAP2 DUP3 SWAP1 SSTORE PUSH1 0x1 DUP1 SLOAD SWAP2 SWAP1 SWAP3 DIV DUP5 AND SWAP4 SWAP2 SWAP3 SWAP2 PUSH2 0x144 SWAP2 DUP6 SWAP2 AND PUSH2 0x44D JUMP JUMPDEST DUP3 SLOAD PUSH2 0x100 SWAP3 SWAP1 SWAP3 EXP PUSH1 0xFF DUP2 DUP2 MUL NOT SWAP1 SWAP4 AND SWAP2 DUP4 AND MUL OR SWAP1 SWAP2 SSTORE CALLER PUSH1 0x0 SWAP1 DUP2 MSTORE PUSH1 0x20 DUP2 SWAP1 MSTORE PUSH1 0x40 SWAP1 KECCAK256 DUP1 SLOAD PUSH2 0xFF00 NOT DUP2 AND SWAP2 DUP3 SWAP1 SSTORE DUP3 AND PUSH3 0x10000 SWAP1 SWAP2 DIV SWAP1 SWAP2 AND EQ ISZERO SWAP1 POP PUSH2 0x218 JUMPI PUSH1 0x40 MLOAD CALLER SWAP1 PUSH1 0x0 SWAP1 PUSH6 0x5AF3107A4000 SWAP1 DUP3 DUP2 DUP2 DUP2 DUP6 DUP9 DUP4 CALL SWAP4 POP POP POP POP ISZERO DUP1 ISZERO PUSH2 0x1BB JUMPI RETURNDATASIZE PUSH1 0x0 DUP1 RETURNDATACOPY RETURNDATASIZE PUSH1 0x0 REVERT JUMPDEST POP CALLER PUSH1 0x0 DUP2 DUP2 MSTORE PUSH1 0x20 DUP2 SWAP1 MSTORE PUSH1 0x40 SWAP1 DUP2 SWAP1 KECCAK256 SLOAD SWAP1 MLOAD PUSH32 0x3D5111BC39D83142C48BB36D748BD189343787AF8EE3E85D6AC090245FAC1FD2 SWAP3 PUSH2 0x20B SWAP3 SWAP1 SWAP2 PUSH1 0xFF DUP1 DUP4 AND SWAP3 PUSH3 0x10000 SWAP1 DIV AND SWAP1 PUSH2 0x3F8 JUMP JUMPDEST PUSH1 0x40 MLOAD DUP1 SWAP2 SUB SWAP1 LOG1 PUSH2 0x270 JUMP JUMPDEST CALLER PUSH1 0x0 DUP2 DUP2 MSTORE PUSH1 0x20 DUP2 SWAP1 MSTORE PUSH1 0x40 SWAP1 DUP2 SWAP1 KECCAK256 SLOAD SWAP1 MLOAD PUSH32 0x3D5111BC39D83142C48BB36D748BD189343787AF8EE3E85D6AC090245FAC1FD2 SWAP3 PUSH2 0x267 SWAP3 SWAP1 SWAP2 PUSH1 0xFF DUP1 DUP4 AND SWAP3 PUSH3 0x10000 SWAP1 DIV AND SWAP1 PUSH2 0x3F8 JUMP JUMPDEST PUSH1 0x40 MLOAD DUP1 SWAP2 SUB SWAP1 LOG1 JUMPDEST POP POP CALLER PUSH1 0x0 DUP2 DUP2 MSTORE PUSH1 0x20 DUP2 SWAP1 MSTORE PUSH1 0x40 SWAP1 KECCAK256 SLOAD SWAP1 SWAP2 POP PUSH1 0xFF DUP1 DUP3 AND SWAP2 PUSH3 0x10000 SWAP1 DIV AND SWAP1 SWAP2 SWAP3 JUMP JUMPDEST CALLER PUSH1 0x0 SWAP1 DUP2 MSTORE PUSH1 0x20 DUP2 SWAP1 MSTORE PUSH1 0x40 DUP2 KECCAK256 SLOAD PUSH2 0x100 SWAP1 DIV PUSH1 0xFF AND ISZERO PUSH2 0x2B9 JUMPI PUSH1 0x0 DUP1 REVERT JUMPDEST CALLER PUSH1 0x0 SWAP1 DUP2 MSTORE PUSH1 0x20 DUP2 SWAP1 MSTORE PUSH1 0x40 SWAP1 KECCAK256 DUP1 SLOAD PUSH2 0xFF00 NOT AND PUSH2 0x100 OR SWAP1 SSTORE PUSH2 0x2DD PUSH2 0x391 JUMP JUMPDEST CALLER PUSH1 0x0 SWAP1 DUP2 MSTORE PUSH1 0x20 DUP2 SWAP1 MSTORE PUSH1 0x40 DUP2 KECCAK256 DUP1 SLOAD PUSH1 0xFF NOT AND PUSH1 0xFF SWAP4 DUP5 AND OR SWAP1 DUP2 SWAP1 SSTORE PUSH1 0x1 DUP1 SLOAD SWAP2 DUP5 AND SWAP4 SWAP1 SWAP3 SWAP2 PUSH2 0x313 SWAP2 DUP6 SWAP2 AND PUSH2 0x44D JUMP JUMPDEST DUP3 SLOAD PUSH2 0x100 SWAP3 SWAP1 SWAP3 EXP PUSH1 0xFF DUP2 DUP2 MUL NOT SWAP1 SWAP4 AND SWAP2 DUP4 AND MUL OR SWAP1 SWAP2 SSTORE CALLER PUSH1 0x0 DUP2 DUP2 MSTORE PUSH1 0x20 DUP2 SWAP1 MSTORE PUSH1 0x40 SWAP1 DUP2 SWAP1 KECCAK256 SLOAD SWAP1 MLOAD PUSH32 0xECAEA69E9326EBE5AA0B5282A1D0F49D704B5F0E79524D948A3540F071C45C38 SWAP5 POP PUSH2 0x372 SWAP4 SWAP2 SWAP1 SWAP2 AND SWAP1 PUSH2 0x3DC JUMP JUMPDEST PUSH1 0x40 MLOAD DUP1 SWAP2 SUB SWAP1 LOG1 POP CALLER PUSH1 0x0 SWAP1 DUP2 MSTORE PUSH1 0x20 DUP2 SWAP1 MSTORE PUSH1 0x40 SWAP1 KECCAK256 SLOAD PUSH1 0xFF AND SWAP1 JUMP JUMPDEST PUSH1 0x0 DUP1 TIMESTAMP PUSH2 0x3A0 PUSH1 0x1 NUMBER PUSH2 0x472 JUMP JUMPDEST PUSH2 0x3AA SWAP2 SWAP1 PUSH2 0x435 JUMP JUMPDEST PUSH1 0x1 SLOAD SWAP1 BLOCKHASH SWAP2 POP PUSH2 0x3BE SWAP1 PUSH1 0xFF AND DUP3 PUSH2 0x435 JUMP JUMPDEST SWAP1 POP PUSH2 0x3CB PUSH1 0x5 DUP3 PUSH2 0x489 JUMP JUMPDEST PUSH2 0x3D6 SWAP1 PUSH1 0x1 PUSH2 0x44D JUMP JUMPDEST SWAP2 POP POP SWAP1 JUMP JUMPDEST PUSH1 0x1 PUSH1 0x1 PUSH1 0xA0 SHL SUB SWAP3 SWAP1 SWAP3 AND DUP3 MSTORE PUSH1 0xFF AND PUSH1 0x20 DUP3 ADD MSTORE PUSH1 0x40 ADD SWAP1 JUMP JUMPDEST PUSH1 0x1 PUSH1 0x1 PUSH1 0xA0 SHL SUB SWAP4 SWAP1 SWAP4 AND DUP4 MSTORE PUSH1 0xFF SWAP2 DUP3 AND PUSH1 0x20 DUP5 ADD MSTORE AND PUSH1 0x40 DUP3 ADD MSTORE PUSH1 0x60 ADD SWAP1 JUMP JUMPDEST SWAP1 ISZERO ISZERO DUP2 MSTORE PUSH1 0x20 ADD SWAP1 JUMP JUMPDEST PUSH1 0xFF SWAP2 SWAP1 SWAP2 AND DUP2 MSTORE PUSH1 0x20 ADD SWAP1 JUMP JUMPDEST PUSH1 0x0 DUP3 NOT DUP3 GT ISZERO PUSH2 0x448 JUMPI PUSH2 0x448 PUSH2 0x4A9 JUMP JUMPDEST POP ADD SWAP1 JUMP JUMPDEST PUSH1 0x0 PUSH1 0xFF DUP3 AND PUSH1 0xFF DUP5 AND DUP1 PUSH1 0xFF SUB DUP3 GT ISZERO PUSH2 0x46A JUMPI PUSH2 0x46A PUSH2 0x4A9 JUMP JUMPDEST ADD SWAP4 SWAP3 POP POP POP JUMP JUMPDEST PUSH1 0x0 DUP3 DUP3 LT ISZERO PUSH2 0x484 JUMPI PUSH2 0x484 PUSH2 0x4A9 JUMP JUMPDEST POP SUB SWAP1 JUMP JUMPDEST PUSH1 0x0 DUP3 PUSH2 0x4A4 JUMPI PUSH4 0x4E487B71 PUSH1 0xE0 SHL DUP2 MSTORE PUSH1 0x12 PUSH1 0x4 MSTORE PUSH1 0x24 DUP2 REVERT JUMPDEST POP MOD SWAP1 JUMP JUMPDEST PUSH4 0x4E487B71 PUSH1 0xE0 SHL PUSH1 0x0 MSTORE PUSH1 0x11 PUSH1 0x4 MSTORE PUSH1 0x24 PUSH1 0x0 REVERT INVALID LOG2 PUSH5 0x6970667358 0x22 SLT KECCAK256 BLOCKHASH SUB LOG2 SWAP5 INVALID 0x29 0xC7 0xC8 CALLDATACOPY 0x24 PUSH4 0x3709E444 0xC9 CALLDATASIZE 0x1E 0xD0 PUSH10 0x6D3DF0BB0420284C4D82 PUSH28 0x9264736F6C6343000800003300000000000000000000000000000000 ",
  "sha1": "b2924f6db9c9cd568fa3efd0103a20eb4d2c7122",
  "source": "//SPDX-License-Identifier: MIT\npragma solidity ^0.8.0;\n\ncontract Dicegame {\n    struct Createbet {\n        uint8 presentbet; //it is used to set a new bet\n        bool isbetset; //ultimate value of this is false\n        uint8 finl; //finl is actually final, but since in solidity final is a reserved keyword so i used finl.\n    }\n\n    mapping(address => Createbet) private bets;\n\n    uint8 private randomfactor;\n\n    //Creating two new events:\n    event newbetisset(address bidder, uint8 presentbet);\n\n    event gameresult(address bidder, uint8 presentbet, uint8 finl);\n\n    constructor() {\n        randomfactor = 10;\n    }\n\n    function isbetset() public view returns (bool) {\n        return bets[msg.sender].isbetset;\n    }\n\n    //getting a new bet\n    function getNewbet() public returns (uint8) {\n        require(bets[msg.sender].isbetset == false);\n        bets[msg.sender].isbetset = true;\n        bets[msg.sender].presentbet = random();\n        randomfactor += bets[msg.sender].presentbet;\n        emit newbetisset(msg.sender, bets[msg.sender].presentbet);\n        return bets[msg.sender].presentbet;\n    }\n\n    //roll a dice\n    function roll()\n        public\n        returns (\n            address,\n            uint8,\n            uint8\n        )\n    {\n        require(bets[msg.sender].isbetset == true);\n        bets[msg.sender].finl = random();\n        randomfactor += bets[msg.sender].finl;\n        bets[msg.sender].isbetset = false;\n        if (bets[msg.sender].finl == bets[msg.sender].presentbet) {\n            payable(msg.sender).transfer(100000000000000);\n            emit gameresult(\n                msg.sender,\n                bets[msg.sender].presentbet,\n                bets[msg.sender].finl\n            );\n        } else {\n            emit gameresult(\n                msg.sender,\n                bets[msg.sender].presentbet,\n                bets[msg.sender].finl\n            );\n        }\n\n        return (msg.sender, bets[msg.sender].presentbet, bets[msg.sender].finl);\n    }\n\n    function random() private view returns (uint8) {\n        uint256 blockValue = uint256(\n            blockhash(block.number - 1 + block.timestamp)\n        );\n        blockValue = blockValue + uint256(randomfactor);\n        return uint8(blockValue % 5) + 1;\n    }\n\n    //function is executed if a contract is called and no other function matches the specified function identifier, or if no data is supplied.\n    fallback() external payable {}\n\n    //receiving ether function\n    receive() external payable {}\n}\n",
  "sourcePath": "contracts/Dicegame.sol",
  "type": "contract"
}